{
  "contractName": "Esercizio1",
  "abi": [
    {
      "anonymous": false,
      "inputs": [
        {
          "indexed": false,
          "internalType": "address",
          "name": "",
          "type": "address"
        },
        {
          "indexed": false,
          "internalType": "uint256",
          "name": "",
          "type": "uint256"
        }
      ],
      "name": "stored",
      "type": "event"
    },
    {
      "inputs": [
        {
          "internalType": "address",
          "name": "",
          "type": "address"
        }
      ],
      "name": "myMap",
      "outputs": [
        {
          "internalType": "uint256",
          "name": "",
          "type": "uint256"
        }
      ],
      "stateMutability": "view",
      "type": "function",
      "constant": true
    },
    {
      "inputs": [
        {
          "internalType": "uint256",
          "name": "num",
          "type": "uint256"
        }
      ],
      "name": "write",
      "outputs": [],
      "stateMutability": "nonpayable",
      "type": "function"
    },
    {
      "inputs": [],
      "name": "getValue",
      "outputs": [
        {
          "internalType": "uint256",
          "name": "",
          "type": "uint256"
        }
      ],
      "stateMutability": "view",
      "type": "function",
      "constant": true
    }
  ],
  "bytecode": "0x608060405234801561001057600080fd5b50610318806100206000396000f3fe608060405234801561001057600080fd5b50600436106100415760003560e01c8063209652551461004657806327cbd529146100645780632f048afa14610094575b600080fd5b61004e6100b0565b60405161005b91906101a6565b60405180910390f35b61007e60048036038101906100799190610224565b6100f6565b60405161008b91906101a6565b60405180910390f35b6100ae60048036038101906100a9919061027d565b61010e565b005b60008060003373ffffffffffffffffffffffffffffffffffffffff1673ffffffffffffffffffffffffffffffffffffffff16815260200190815260200160002054905090565b60006020528060005260406000206000915090505481565b806000803373ffffffffffffffffffffffffffffffffffffffff1673ffffffffffffffffffffffffffffffffffffffff168152602001908152602001600020819055507fc9db20adedc6cf2b5d25252b101ab03e124902a73fcb12b753f3d1aaa2d8f9f533826040516101829291906102b9565b60405180910390a150565b6000819050919050565b6101a08161018d565b82525050565b60006020820190506101bb6000830184610197565b92915050565b600080fd5b600073ffffffffffffffffffffffffffffffffffffffff82169050919050565b60006101f1826101c6565b9050919050565b610201816101e6565b811461020c57600080fd5b50565b60008135905061021e816101f8565b92915050565b60006020828403121561023a576102396101c1565b5b60006102488482850161020f565b91505092915050565b61025a8161018d565b811461026557600080fd5b50565b60008135905061027781610251565b92915050565b600060208284031215610293576102926101c1565b5b60006102a184828501610268565b91505092915050565b6102b3816101e6565b82525050565b60006040820190506102ce60008301856102aa565b6102db6020830184610197565b939250505056fea2646970667358221220232addba973ebbc3b95ef86641cd32d974c167c8b4b56a69dbabc92bf5c22a0664736f6c634300080e0033",
  "immutableReferences": {},
  "source": "/**\n *Submitted for verification at Etherscan.io on 2022-05-25\n*/\n\n// SPDX-License-Identifier: GPL-3.0\n\npragma solidity >=0.7.0 <0.9.0;\n\ncontract Esercizio1 {\n\n    mapping(address => uint) public myMap;\n    event stored(address, uint);\n\n\n    // scrive nella mappa indirizzo di chi ha invocato e valore passato come parametro\n    function write(uint256 num) public {\n         myMap[msg.sender] = num;\n\n        // Emette evento\n         emit stored(msg.sender, num);\n    }\n\n\n    // Prende come parametro indirizzo e restituisce vlaore preso dalla mappa\n    function getValue() public view returns (uint256){\n        return myMap[msg.sender];\n    }\n}\n",
  "sourcePath": "/home/fernet/Documenti/ProjectOnChain/MyFirstContract/contracts/Esercizio1.sol",
  "compiler": {
    "name": "solc",
    "version": "0.8.14+commit.80d49f37.Emscripten.clang"
  },
  "schemaVersion": "3.4.7",
  "updatedAt": "2022-05-31T00:43:24.955Z",
  "networkType": "ethereum",
  "devdoc": {
    "kind": "dev",
    "methods": {},
    "version": 1
  },
  "userdoc": {
    "kind": "user",
    "methods": {},
    "version": 1
  }
}